:100000000EC0E4C01CC01BC01AC022C118C017C05B
:100010004EC015C014C013C012C011C010C01124AE
:100020001FBECFE5D1E0DEBFCDBF20E0A0E6B0E04F
:1000300001C01D92AB3CB207E1F7FED2BFC3E0CFD7
:10004000FC019C01205E3F4F61937193E217F3071F
:10005000D9F7FC0112A284E0660F771F8A95E1F7B9
:1000600071A360A30895FB01480FE199FECF21E041
:10007000280F90E09FBB8EBBE09A8DB3819324172D
:1000800011F0822FF2CF0895FB01480FE199FECFC6
:100090001CBA21E0280F90E09FBB8EBB81918DBBE5
:1000A000E29AE19A241711F0822FF0CF08951F925F
:1000B0000F920FB60F9211242F933F934F935F939C
:1000C0006F937F938F939F93AF93BF93EF93FF9320
:1000D00044B155B15370A4EAB0E090962D913C9193
:1000E000919792968C919297E82FF0E0240F351F0C
:1000F000EE0FFF1FEC55FF4F60817181261B370B00
:1001000091963C932E939097518340838F5F8F708D
:1001100092968C93929790964D915C919197809145
:100120009A0090919B00A0919C00B0919D0020911D
:10013000980030919900840F951FA11DB11D821B5D
:10014000930BA109B10980939A0090939B00A0930F
:100150009C00B0939D0080919A0090919B00A0918B
:100160009C00B0919D002CE0B695A795979587953A
:100170002A95D1F79093990080939800FF91EF9181
:10018000BF91AF919F918F917F916F915F914F91AF
:100190003F912F910F900FBE0F901F90189522B78F
:1001A00008B601FE0AC022B78091A2009091A30078
:1001B0000196982F8827822B08958091A200909114
:1001C000A300F7CFF894EBDF789408951F920F9275
:1001D0000FB60F9211241F932F933F934F935F936A
:1001E0006F937F938F939F93AF93BF93CF93DF933F
:1001F000EF93FF9310916D001431B0F4C12FD0E054
:1002000086B390E095958795959587958C279D2742
:1002100080FF0AC0C4DFCC0FDD1FC259DF4F9983B6
:1002200088831F5F10936D00FF91EF91DF91CF9155
:10023000BF91AF919F918F917F916F915F914F91FE
:100240003F912F911F910F900FBE0F901F90189507
:100250001F920F920FB60F9211248F939F9380914C
:10026000A2009091A30001969093A3008093A20016
:100270009F918F910F900FBE0F901F901895F8943B
:100280002091A2003091A30078948091A0009091D9
:10029000A100281B390B2638314038F0A8958A5721
:1002A0009E4F9093A1008093A00008950F931F93F9
:1002B000CF93DF93EC01F8940091A2001091A3007A
:1002C0007894DDDFF8948091A2009091A300789457
:1002D000801B910B8C179D07A0F3DF91CF911F918D
:1002E0000F910895C1980895A0E0B0E0BC01CD0140
:1002F0002EE0660F771F881F991F2A95D1F72CE4EF
:1003000034E040E050E038D23093970020939600DC
:100310000895CF93C82FE6DF8DE093E0C7DFCC23AD
:1003200051F0C19A8DE093E0C1DFDCDF8DE093E016
:10033000BDDFC150F4CFCF91089580916A00893616
:1003400021F1833809F043C080916900823008F4BC
:1003500040C080916B008338D1F58FEF9FEF909371
:10036000CA008093C9009093C8008093C70087EFAC
:1003700092E0909397008093960044E067EC70E0E1
:1003800080E082DE85E0C5DF22C080916900833095
:1003900000F180916B0090916C0098279F3FB9F419
:1003A00090E001969093C8008093C7009C0146EAB4
:1003B000242742E534273093CA002093C90094DFF4
:1003C00044E067EC70E080E05FDE84E0DCCF109218
:1003D000690008950F931F93CF93C0916D00F2DED3
:1003E00020916800213009F138F0223009F47EC0F4
:1003F000233009F4D5C01CC1C23008F419C1809162
:1004000070009091710020916E0030916F00821BFE
:10041000930B9093670080936600815093408431E2
:10042000924008F052C081E051C02091700030919C
:1004300071000091660010916700AC01421B530BE4
:100440009A01C8016DE070E086D196958795821774
:10045000930708F0EDC0C80163E070E07CD19C0117
:100460003695279582E0809365001092640085E0C0
:1004700090E0E2E0EC1728F0990FE0FF15C09160E2
:1004800013C0AE2FB0E0AA0FBB1FA259BF4F4D91B2
:100490005C916091700070917100461B570B421780
:1004A000530708F48DC0E8CF200F311F815011F79A
:1004B000E093650090936400892F90E09C0135954E
:1004C00027958227932780FD04C083E080936800EE
:1004D000AFC0F0E0EE0FFF1FE459FF4F8081918124
:1004E000909363008093620082E0F0CFA09162005D
:1004F000B091630000916600109167009C012A1B77
:100500003B0BC8016DE070E026D196958795821768
:10051000930708F08DC0C80163E070E01CD1AC0106
:10052000569547952091650085E090E02C1728F0BE
:10053000990F20FF11C091600FC0E22FF0E0EE0F85
:10054000FF1FE259FF4F608171816A1B7B0B6417AB
:10055000750708F450C0ECCF400F511F815031F7A0
:1005600020936500892F90E09C013595279582277F
:10057000932780FFAACF10926D00E091690081E07F
:100580008E0F80936900F0E0E659FF4F8091640080
:10059000880F880F880F807F822B8083CEDE0DC06E
:1005A000B2993EC0C1113CC0209160003091610001
:1005B000821B930B883A9146D8F11092680038C09C
:1005C000EF5FEC1708F058CFAE2FB0E0AA0FBB1FBB
:1005D000A259BF4F4D915C91609170007091710074
:1005E000461B570B4217530708F046CFE0936500B0
:1005F000909364006ACF2F5F2C1708F099CFE22FF9
:10060000F0E0EE0FFF1FE259FF4F608171816A1B1E
:100610007B0B6417750708F08BCF2093650055CFCF
:10062000909361008093600010926D0010926900B9
:10063000CF911F910F910895F89460E072E084EAE1
:1006400090E0FEDC80E184BB9DE098BB82E087BB4C
:1006500028E10FB6F894A89521BD0FBE91BD92E890
:1006600097B913B89DEB96B91ABC83BF89B782605E
:1006700089BF7894369A86EC9DE218DE44E067ECF8
:1006800070E080E0F0DC2091C7003091C800C0919C
:10069000C900D091CA00C227D327C63A82E5D8073D
:1006A00011F4C90102C083E390E01EDEF89481E0FA
:1006B00085BF80E48ABF8BBF8091C4009091C50044
:1006C0009093990080939800809198009091990060
:1006D000A0E0B0E02CE0880F991FAA1FBB1F2A954D
:1006E000D1F780939A0090939B00A0939C00B093C5
:1006F0009D007894C63AD24511F082E001C083E0B3
:1007000008DEF89460919800709199004091C400BF
:100710005091C5008091A2009091A30078942091FF
:10072000960030919700260F371F4217530730F07D
:10073000C19A90939F0080939E000AC020919E00D2
:1007400030919F00821B930B8F34910508F0CADD16
:1007500041DE95DDD6CF0024552704C0080E591F71
:10076000880F991F009729F076956795B8F3710562
:10077000B9F7802D952F0895A1E21A2EAA1BBB1B55
:10078000FD010DC0AA1FBB1FEE1FFF1FA217B3075D
:10079000E407F50720F0A21BB30BE40BF50B661F73
:1007A000771F881F991F1A9469F760957095809537
:1007B00090959B01AC01BD01CF010895F894FFCF46
:00000001FF
